:1000000010C01FC01EC01DC01CC01BC01AC019C01C
:1000100018C017C016C015C014C013C012C011C03C
:1000200010C011241FBECFE5D2E0DEBFCDBF10E06F
:10003000A0E6B0E001C01D92A136B107E1F702D001
:1000400048C0DECF84E886B913B8FFCF089540E0FA
:1000500050E0369A3699FECF85B124B190E0820FF8
:10006000911D680F791F4F5F5F4F4A30510589F727
:10007000CB016AE070E006D0CB01089584E886B930
:1000800013B8089597FB092E07260AD077FD04D0F0
:100090000CD006D000201AF4709561957F4F08951A
:1000A000F6F7909581959F4F0895AA1BBB1B51E1D0
:1000B00007C0AA1FBB1FA617B70710F0A61BB70BD8
:1000C000881F991F5A95A9F780959095BC01CD017D
:0600D0000895F894FFCF33
:00000001FF
